{
  "contractName": "DappToken",
  "abi": [
    {
      "inputs": [],
      "stateMutability": "nonpayable",
      "type": "constructor"
    },
    {
      "inputs": [],
      "name": "totalSupply",
      "outputs": [
        {
          "internalType": "uint256",
          "name": "",
          "type": "uint256"
        }
      ],
      "stateMutability": "view",
      "type": "function",
      "constant": true
    }
  ],
  "bytecode": "0x608060405234801561001057600080fd5b50620f424060008190555060b3806100296000396000f3fe6080604052348015600f57600080fd5b506004361060285760003560e01c806318160ddd14602d575b600080fd5b60336047565b604051603e91906064565b60405180910390f35b60005481565b6000819050919050565b605e81604d565b82525050565b6000602082019050607760008301846057565b9291505056fea264697066735822122057bbb02fcea7304a735266100e8e17a7d9b332ff97487e9a48a6058349e8f85e64736f6c634300080f0033",
  "immutableReferences": {},
  "source": "// SPDX-License-Identifier: MIT\npragma solidity >=0.4.22 <0.9.0;\n\ncontract DappToken {\n\n  // state variables\n  uint256 public totalSupply;\n\n  // constructor\n\n  constructor() public {\n    totalSupply = 1000000;\n  }\n\n  // Set the total number of tokens\n\n  // Read the total number of tokens\n  \n}\n",
  "sourcePath": "/home/henok/Documents/microverse/BlockChain and Web3/Dapp University/token_sale/contracts/DappToken.sol",
  "compiler": {
    "name": "solc",
    "version": "0.8.15+commit.e14f2714.Emscripten.clang"
  },
  "schemaVersion": "3.4.8",
  "updatedAt": "2023-08-29T22:03:41.637Z",
  "networkType": "ethereum",
  "devdoc": {
    "kind": "dev",
    "methods": {},
    "version": 1
  },
  "userdoc": {
    "kind": "user",
    "methods": {},
    "version": 1
  }
}